{
  "contracts/HashesTest.sol": {
    "HashesTest": {
      "abi": [
        {
          "inputs": [
            {
              "internalType": "uint256",
              "name": "nonce",
              "type": "uint256"
            },
            {
              "internalType": "address",
              "name": "minter",
              "type": "address"
            },
            {
              "internalType": "string",
              "name": "_phrase",
              "type": "string"
            }
          ],
          "name": "supportsInterface",
          "outputs": [
            {
              "internalType": "bytes32",
              "name": "",
              "type": "bytes32"
            }
          ],
          "stateMutability": "view",
          "type": "function"
        }
      ],
      "evm": {
        "bytecode": {
          "linkReferences": {},
          "object": "608060405234801561001057600080fd5b5061041e806100206000396000f3fe608060405234801561001057600080fd5b506004361061002b5760003560e01c8063ea4e705b14610030575b600080fd5b61004a60048036038101906100459190610128565b610060565b6040516100579190610236565b60405180910390f35b6000838383604051602001610077939291906101fd565b6040516020818303038152906040528051906020012090509392505050565b60006100a96100a484610282565b610251565b9050828152602081018484840111156100c157600080fd5b6100cc84828561030e565b509392505050565b6000813590506100e3816103ba565b92915050565b600082601f8301126100fa57600080fd5b813561010a848260208601610096565b91505092915050565b600081359050610122816103d1565b92915050565b60008060006060848603121561013d57600080fd5b600061014b86828701610113565b935050602061015c868287016100d4565b925050604084013567ffffffffffffffff81111561017957600080fd5b610185868287016100e9565b9150509250925092565b6101a061019b826102c8565b610350565b82525050565b6101af816102da565b82525050565b60006101c0826102b2565b6101ca81856102bd565b93506101da81856020860161031d565b80840191505092915050565b6101f76101f282610304565b610374565b82525050565b600061020982866101e6565b602082019150610219828561018f565b60148201915061022982846101b5565b9150819050949350505050565b600060208201905061024b60008301846101a6565b92915050565b6000604051905081810181811067ffffffffffffffff821117156102785761027761037e565b5b8060405250919050565b600067ffffffffffffffff82111561029d5761029c61037e565b5b601f19601f8301169050602081019050919050565b600081519050919050565b600081905092915050565b60006102d3826102e4565b9050919050565b6000819050919050565b600073ffffffffffffffffffffffffffffffffffffffff82169050919050565b6000819050919050565b82818337600083830152505050565b60005b8381101561033b578082015181840152602081019050610320565b8381111561034a576000848401525b50505050565b600061035b82610362565b9050919050565b600061036d826103ad565b9050919050565b6000819050919050565b7f4e487b7100000000000000000000000000000000000000000000000000000000600052604160045260246000fd5b60008160601b9050919050565b6103c3816102c8565b81146103ce57600080fd5b50565b6103da81610304565b81146103e557600080fd5b5056fea26469706673582212201c48c854795c517c4ce319131fa4051097d7e9010d476de95478923ba2eb396564736f6c63430008000033",
          "opcodes": "PUSH1 0x80 PUSH1 0x40 MSTORE CALLVALUE DUP1 ISZERO PUSH2 0x10 JUMPI PUSH1 0x0 DUP1 REVERT JUMPDEST POP PUSH2 0x41E DUP1 PUSH2 0x20 PUSH1 0x0 CODECOPY PUSH1 0x0 RETURN INVALID PUSH1 0x80 PUSH1 0x40 MSTORE CALLVALUE DUP1 ISZERO PUSH2 0x10 JUMPI PUSH1 0x0 DUP1 REVERT JUMPDEST POP PUSH1 0x4 CALLDATASIZE LT PUSH2 0x2B JUMPI PUSH1 0x0 CALLDATALOAD PUSH1 0xE0 SHR DUP1 PUSH4 0xEA4E705B EQ PUSH2 0x30 JUMPI JUMPDEST PUSH1 0x0 DUP1 REVERT JUMPDEST PUSH2 0x4A PUSH1 0x4 DUP1 CALLDATASIZE SUB DUP2 ADD SWAP1 PUSH2 0x45 SWAP2 SWAP1 PUSH2 0x128 JUMP JUMPDEST PUSH2 0x60 JUMP JUMPDEST PUSH1 0x40 MLOAD PUSH2 0x57 SWAP2 SWAP1 PUSH2 0x236 JUMP JUMPDEST PUSH1 0x40 MLOAD DUP1 SWAP2 SUB SWAP1 RETURN JUMPDEST PUSH1 0x0 DUP4 DUP4 DUP4 PUSH1 0x40 MLOAD PUSH1 0x20 ADD PUSH2 0x77 SWAP4 SWAP3 SWAP2 SWAP1 PUSH2 0x1FD JUMP JUMPDEST PUSH1 0x40 MLOAD PUSH1 0x20 DUP2 DUP4 SUB SUB DUP2 MSTORE SWAP1 PUSH1 0x40 MSTORE DUP1 MLOAD SWAP1 PUSH1 0x20 ADD KECCAK256 SWAP1 POP SWAP4 SWAP3 POP POP POP JUMP JUMPDEST PUSH1 0x0 PUSH2 0xA9 PUSH2 0xA4 DUP5 PUSH2 0x282 JUMP JUMPDEST PUSH2 0x251 JUMP JUMPDEST SWAP1 POP DUP3 DUP2 MSTORE PUSH1 0x20 DUP2 ADD DUP5 DUP5 DUP5 ADD GT ISZERO PUSH2 0xC1 JUMPI PUSH1 0x0 DUP1 REVERT JUMPDEST PUSH2 0xCC DUP5 DUP3 DUP6 PUSH2 0x30E JUMP JUMPDEST POP SWAP4 SWAP3 POP POP POP JUMP JUMPDEST PUSH1 0x0 DUP2 CALLDATALOAD SWAP1 POP PUSH2 0xE3 DUP2 PUSH2 0x3BA JUMP JUMPDEST SWAP3 SWAP2 POP POP JUMP JUMPDEST PUSH1 0x0 DUP3 PUSH1 0x1F DUP4 ADD SLT PUSH2 0xFA JUMPI PUSH1 0x0 DUP1 REVERT JUMPDEST DUP2 CALLDATALOAD PUSH2 0x10A DUP5 DUP3 PUSH1 0x20 DUP7 ADD PUSH2 0x96 JUMP JUMPDEST SWAP2 POP POP SWAP3 SWAP2 POP POP JUMP JUMPDEST PUSH1 0x0 DUP2 CALLDATALOAD SWAP1 POP PUSH2 0x122 DUP2 PUSH2 0x3D1 JUMP JUMPDEST SWAP3 SWAP2 POP POP JUMP JUMPDEST PUSH1 0x0 DUP1 PUSH1 0x0 PUSH1 0x60 DUP5 DUP7 SUB SLT ISZERO PUSH2 0x13D JUMPI PUSH1 0x0 DUP1 REVERT JUMPDEST PUSH1 0x0 PUSH2 0x14B DUP7 DUP3 DUP8 ADD PUSH2 0x113 JUMP JUMPDEST SWAP4 POP POP PUSH1 0x20 PUSH2 0x15C DUP7 DUP3 DUP8 ADD PUSH2 0xD4 JUMP JUMPDEST SWAP3 POP POP PUSH1 0x40 DUP5 ADD CALLDATALOAD PUSH8 0xFFFFFFFFFFFFFFFF DUP2 GT ISZERO PUSH2 0x179 JUMPI PUSH1 0x0 DUP1 REVERT JUMPDEST PUSH2 0x185 DUP7 DUP3 DUP8 ADD PUSH2 0xE9 JUMP JUMPDEST SWAP2 POP POP SWAP3 POP SWAP3 POP SWAP3 JUMP JUMPDEST PUSH2 0x1A0 PUSH2 0x19B DUP3 PUSH2 0x2C8 JUMP JUMPDEST PUSH2 0x350 JUMP JUMPDEST DUP3 MSTORE POP POP JUMP JUMPDEST PUSH2 0x1AF DUP2 PUSH2 0x2DA JUMP JUMPDEST DUP3 MSTORE POP POP JUMP JUMPDEST PUSH1 0x0 PUSH2 0x1C0 DUP3 PUSH2 0x2B2 JUMP JUMPDEST PUSH2 0x1CA DUP2 DUP6 PUSH2 0x2BD JUMP JUMPDEST SWAP4 POP PUSH2 0x1DA DUP2 DUP6 PUSH1 0x20 DUP7 ADD PUSH2 0x31D JUMP JUMPDEST DUP1 DUP5 ADD SWAP2 POP POP SWAP3 SWAP2 POP POP JUMP JUMPDEST PUSH2 0x1F7 PUSH2 0x1F2 DUP3 PUSH2 0x304 JUMP JUMPDEST PUSH2 0x374 JUMP JUMPDEST DUP3 MSTORE POP POP JUMP JUMPDEST PUSH1 0x0 PUSH2 0x209 DUP3 DUP7 PUSH2 0x1E6 JUMP JUMPDEST PUSH1 0x20 DUP3 ADD SWAP2 POP PUSH2 0x219 DUP3 DUP6 PUSH2 0x18F JUMP JUMPDEST PUSH1 0x14 DUP3 ADD SWAP2 POP PUSH2 0x229 DUP3 DUP5 PUSH2 0x1B5 JUMP JUMPDEST SWAP2 POP DUP2 SWAP1 POP SWAP5 SWAP4 POP POP POP POP JUMP JUMPDEST PUSH1 0x0 PUSH1 0x20 DUP3 ADD SWAP1 POP PUSH2 0x24B PUSH1 0x0 DUP4 ADD DUP5 PUSH2 0x1A6 JUMP JUMPDEST SWAP3 SWAP2 POP POP JUMP JUMPDEST PUSH1 0x0 PUSH1 0x40 MLOAD SWAP1 POP DUP2 DUP2 ADD DUP2 DUP2 LT PUSH8 0xFFFFFFFFFFFFFFFF DUP3 GT OR ISZERO PUSH2 0x278 JUMPI PUSH2 0x277 PUSH2 0x37E JUMP JUMPDEST JUMPDEST DUP1 PUSH1 0x40 MSTORE POP SWAP2 SWAP1 POP JUMP JUMPDEST PUSH1 0x0 PUSH8 0xFFFFFFFFFFFFFFFF DUP3 GT ISZERO PUSH2 0x29D JUMPI PUSH2 0x29C PUSH2 0x37E JUMP JUMPDEST JUMPDEST PUSH1 0x1F NOT PUSH1 0x1F DUP4 ADD AND SWAP1 POP PUSH1 0x20 DUP2 ADD SWAP1 POP SWAP2 SWAP1 POP JUMP JUMPDEST PUSH1 0x0 DUP2 MLOAD SWAP1 POP SWAP2 SWAP1 POP JUMP JUMPDEST PUSH1 0x0 DUP2 SWAP1 POP SWAP3 SWAP2 POP POP JUMP JUMPDEST PUSH1 0x0 PUSH2 0x2D3 DUP3 PUSH2 0x2E4 JUMP JUMPDEST SWAP1 POP SWAP2 SWAP1 POP JUMP JUMPDEST PUSH1 0x0 DUP2 SWAP1 POP SWAP2 SWAP1 POP JUMP JUMPDEST PUSH1 0x0 PUSH20 0xFFFFFFFFFFFFFFFFFFFFFFFFFFFFFFFFFFFFFFFF DUP3 AND SWAP1 POP SWAP2 SWAP1 POP JUMP JUMPDEST PUSH1 0x0 DUP2 SWAP1 POP SWAP2 SWAP1 POP JUMP JUMPDEST DUP3 DUP2 DUP4 CALLDATACOPY PUSH1 0x0 DUP4 DUP4 ADD MSTORE POP POP POP JUMP JUMPDEST PUSH1 0x0 JUMPDEST DUP4 DUP2 LT ISZERO PUSH2 0x33B JUMPI DUP1 DUP3 ADD MLOAD DUP2 DUP5 ADD MSTORE PUSH1 0x20 DUP2 ADD SWAP1 POP PUSH2 0x320 JUMP JUMPDEST DUP4 DUP2 GT ISZERO PUSH2 0x34A JUMPI PUSH1 0x0 DUP5 DUP5 ADD MSTORE JUMPDEST POP POP POP POP JUMP JUMPDEST PUSH1 0x0 PUSH2 0x35B DUP3 PUSH2 0x362 JUMP JUMPDEST SWAP1 POP SWAP2 SWAP1 POP JUMP JUMPDEST PUSH1 0x0 PUSH2 0x36D DUP3 PUSH2 0x3AD JUMP JUMPDEST SWAP1 POP SWAP2 SWAP1 POP JUMP JUMPDEST PUSH1 0x0 DUP2 SWAP1 POP SWAP2 SWAP1 POP JUMP JUMPDEST PUSH32 0x4E487B7100000000000000000000000000000000000000000000000000000000 PUSH1 0x0 MSTORE PUSH1 0x41 PUSH1 0x4 MSTORE PUSH1 0x24 PUSH1 0x0 REVERT JUMPDEST PUSH1 0x0 DUP2 PUSH1 0x60 SHL SWAP1 POP SWAP2 SWAP1 POP JUMP JUMPDEST PUSH2 0x3C3 DUP2 PUSH2 0x2C8 JUMP JUMPDEST DUP2 EQ PUSH2 0x3CE JUMPI PUSH1 0x0 DUP1 REVERT JUMPDEST POP JUMP JUMPDEST PUSH2 0x3DA DUP2 PUSH2 0x304 JUMP JUMPDEST DUP2 EQ PUSH2 0x3E5 JUMPI PUSH1 0x0 DUP1 REVERT JUMPDEST POP JUMP INVALID LOG2 PUSH5 0x6970667358 0x22 SLT KECCAK256 SHR 0x48 0xC8 SLOAD PUSH26 0x5C517C4CE319131FA4051097D7E9010D476DE95478923BA2EB39 PUSH6 0x64736F6C6343 STOP ADDMOD STOP STOP CALLER "
        },
        "methodIdentifiers": {
          "supportsInterface(uint256,address,string)": "ea4e705b"
        }
      }
    }
  }
}