{
  "_format": "hh-sol-artifact-1",
  "contractName": "Ethms",
  "sourceName": "contracts/Ethms.sol",
  "abi": [
    {
      "inputs": [
        {
          "internalType": "address",
          "name": "_templateAddr",
          "type": "address"
        }
      ],
      "stateMutability": "nonpayable",
      "type": "constructor"
    },
    {
      "anonymous": false,
      "inputs": [
        {
          "indexed": true,
          "internalType": "address",
          "name": "owner",
          "type": "address"
        },
        {
          "indexed": true,
          "internalType": "address",
          "name": "approved",
          "type": "address"
        },
        {
          "indexed": true,
          "internalType": "uint256",
          "name": "tokenId",
          "type": "uint256"
        }
      ],
      "name": "Approval",
      "type": "event"
    },
    {
      "anonymous": false,
      "inputs": [
        {
          "indexed": true,
          "internalType": "address",
          "name": "owner",
          "type": "address"
        },
        {
          "indexed": true,
          "internalType": "address",
          "name": "operator",
          "type": "address"
        },
        {
          "indexed": false,
          "internalType": "bool",
          "name": "approved",
          "type": "bool"
        }
      ],
      "name": "ApprovalForAll",
      "type": "event"
    },
    {
      "anonymous": false,
      "inputs": [
        {
          "indexed": true,
          "internalType": "address",
          "name": "previousOwner",
          "type": "address"
        },
        {
          "indexed": true,
          "internalType": "address",
          "name": "newOwner",
          "type": "address"
        }
      ],
      "name": "OwnershipTransferred",
      "type": "event"
    },
    {
      "anonymous": false,
      "inputs": [
        {
          "indexed": true,
          "internalType": "address",
          "name": "from",
          "type": "address"
        },
        {
          "indexed": true,
          "internalType": "address",
          "name": "to",
          "type": "address"
        },
        {
          "indexed": true,
          "internalType": "uint256",
          "name": "tokenId",
          "type": "uint256"
        }
      ],
      "name": "Transfer",
      "type": "event"
    },
    {
      "inputs": [
        {
          "internalType": "address",
          "name": "to",
          "type": "address"
        },
        {
          "internalType": "uint256",
          "name": "tokenId",
          "type": "uint256"
        }
      ],
      "name": "approve",
      "outputs": [],
      "stateMutability": "nonpayable",
      "type": "function"
    },
    {
      "inputs": [
        {
          "internalType": "address",
          "name": "owner",
          "type": "address"
        }
      ],
      "name": "balanceOf",
      "outputs": [
        {
          "internalType": "uint256",
          "name": "",
          "type": "uint256"
        }
      ],
      "stateMutability": "view",
      "type": "function"
    },
    {
      "inputs": [],
      "name": "contractBalance",
      "outputs": [
        {
          "internalType": "uint256",
          "name": "",
          "type": "uint256"
        }
      ],
      "stateMutability": "view",
      "type": "function"
    },
    {
      "inputs": [
        {
          "internalType": "uint256",
          "name": "tokenId",
          "type": "uint256"
        }
      ],
      "name": "getApproved",
      "outputs": [
        {
          "internalType": "address",
          "name": "",
          "type": "address"
        }
      ],
      "stateMutability": "view",
      "type": "function"
    },
    {
      "inputs": [
        {
          "internalType": "address",
          "name": "owner",
          "type": "address"
        },
        {
          "internalType": "address",
          "name": "operator",
          "type": "address"
        }
      ],
      "name": "isApprovedForAll",
      "outputs": [
        {
          "internalType": "bool",
          "name": "",
          "type": "bool"
        }
      ],
      "stateMutability": "view",
      "type": "function"
    },
    {
      "inputs": [
        {
          "internalType": "string[8]",
          "name": "message",
          "type": "string[8]"
        },
        {
          "internalType": "uint256",
          "name": "_templateId",
          "type": "uint256"
        },
        {
          "internalType": "address",
          "name": "toAddr",
          "type": "address"
        }
      ],
      "name": "mint",
      "outputs": [],
      "stateMutability": "payable",
      "type": "function"
    },
    {
      "inputs": [],
      "name": "name",
      "outputs": [
        {
          "internalType": "string",
          "name": "",
          "type": "string"
        }
      ],
      "stateMutability": "view",
      "type": "function"
    },
    {
      "inputs": [],
      "name": "owner",
      "outputs": [
        {
          "internalType": "address",
          "name": "",
          "type": "address"
        }
      ],
      "stateMutability": "view",
      "type": "function"
    },
    {
      "inputs": [
        {
          "internalType": "uint256",
          "name": "tokenId",
          "type": "uint256"
        }
      ],
      "name": "ownerOf",
      "outputs": [
        {
          "internalType": "address",
          "name": "",
          "type": "address"
        }
      ],
      "stateMutability": "view",
      "type": "function"
    },
    {
      "inputs": [],
      "name": "renounceOwnership",
      "outputs": [],
      "stateMutability": "nonpayable",
      "type": "function"
    },
    {
      "inputs": [
        {
          "internalType": "address",
          "name": "from",
          "type": "address"
        },
        {
          "internalType": "address",
          "name": "to",
          "type": "address"
        },
        {
          "internalType": "uint256",
          "name": "tokenId",
          "type": "uint256"
        }
      ],
      "name": "safeTransferFrom",
      "outputs": [],
      "stateMutability": "nonpayable",
      "type": "function"
    },
    {
      "inputs": [
        {
          "internalType": "address",
          "name": "from",
          "type": "address"
        },
        {
          "internalType": "address",
          "name": "to",
          "type": "address"
        },
        {
          "internalType": "uint256",
          "name": "tokenId",
          "type": "uint256"
        },
        {
          "internalType": "bytes",
          "name": "_data",
          "type": "bytes"
        }
      ],
      "name": "safeTransferFrom",
      "outputs": [],
      "stateMutability": "nonpayable",
      "type": "function"
    },
    {
      "inputs": [
        {
          "internalType": "address",
          "name": "operator",
          "type": "address"
        },
        {
          "internalType": "bool",
          "name": "approved",
          "type": "bool"
        }
      ],
      "name": "setApprovalForAll",
      "outputs": [],
      "stateMutability": "nonpayable",
      "type": "function"
    },
    {
      "inputs": [
        {
          "internalType": "address",
          "name": "_templateAddr",
          "type": "address"
        }
      ],
      "name": "setEthmsTemplates",
      "outputs": [],
      "stateMutability": "nonpayable",
      "type": "function"
    },
    {
      "inputs": [
        {
          "internalType": "bytes4",
          "name": "interfaceId",
          "type": "bytes4"
        }
      ],
      "name": "supportsInterface",
      "outputs": [
        {
          "internalType": "bool",
          "name": "",
          "type": "bool"
        }
      ],
      "stateMutability": "view",
      "type": "function"
    },
    {
      "inputs": [],
      "name": "symbol",
      "outputs": [
        {
          "internalType": "string",
          "name": "",
          "type": "string"
        }
      ],
      "stateMutability": "view",
      "type": "function"
    },
    {
      "inputs": [
        {
          "internalType": "uint256",
          "name": "index",
          "type": "uint256"
        }
      ],
      "name": "tokenByIndex",
      "outputs": [
        {
          "internalType": "uint256",
          "name": "",
          "type": "uint256"
        }
      ],
      "stateMutability": "view",
      "type": "function"
    },
    {
      "inputs": [
        {
          "internalType": "address",
          "name": "owner",
          "type": "address"
        },
        {
          "internalType": "uint256",
          "name": "index",
          "type": "uint256"
        }
      ],
      "name": "tokenOfOwnerByIndex",
      "outputs": [
        {
          "internalType": "uint256",
          "name": "",
          "type": "uint256"
        }
      ],
      "stateMutability": "view",
      "type": "function"
    },
    {
      "inputs": [
        {
          "internalType": "uint256",
          "name": "tokenId",
          "type": "uint256"
        }
      ],
      "name": "tokenURI",
      "outputs": [
        {
          "internalType": "string",
          "name": "",
          "type": "string"
        }
      ],
      "stateMutability": "view",
      "type": "function"
    },
    {
      "inputs": [],
      "name": "totalCount",
      "outputs": [
        {
          "internalType": "uint256",
          "name": "",
          "type": "uint256"
        }
      ],
      "stateMutability": "view",
      "type": "function"
    },
    {
      "inputs": [],
      "name": "totalSupply",
      "outputs": [
        {
          "internalType": "uint256",
          "name": "",
          "type": "uint256"
        }
      ],
      "stateMutability": "view",
      "type": "function"
    },
    {
      "inputs": [
        {
          "internalType": "address",
          "name": "from",
          "type": "address"
        },
        {
          "internalType": "address",
          "name": "to",
          "type": "address"
        },
        {
          "internalType": "uint256",
          "name": "tokenId",
          "type": "uint256"
        }
      ],
      "name": "transferFrom",
      "outputs": [],
      "stateMutability": "nonpayable",
      "type": "function"
    },
    {
      "inputs": [
        {
          "internalType": "address",
          "name": "newOwner",
          "type": "address"
        }
      ],
      "name": "transferOwnership",
      "outputs": [],
      "stateMutability": "nonpayable",
      "type": "function"
    },
    {
      "inputs": [],
      "name": "withdraw",
      "outputs": [],
      "stateMutability": "nonpayable",
      "type": "function"
    }
  ],
  "bytecode": "0x60806040523480156200001157600080fd5b506040516200469a3803806200469a8339818101604052810190620000379190620003a9565b6040518060400160405280601a81526020017f457468657265756d204d6573736167696e6720536572766963650000000000008152506040518060400160405280600581526020017f4554484d530000000000000000000000000000000000000000000000000000008152508160009080519060200190620000bb929190620002e2565b508060019080519060200190620000d4929190620002e2565b5050506001600a81905550620000ff620000f36200011760201b60201c565b6200011f60201b60201c565b6200011081620001e560201b60201c565b50620004fd565b600033905090565b6000600b60009054906101000a900473ffffffffffffffffffffffffffffffffffffffff16905081600b60006101000a81548173ffffffffffffffffffffffffffffffffffffffff021916908373ffffffffffffffffffffffffffffffffffffffff1602179055508173ffffffffffffffffffffffffffffffffffffffff168173ffffffffffffffffffffffffffffffffffffffff167f8be0079c531659141344cd1fd0a4f28419497f9722a3daafe3b4186f6b6457e060405160405180910390a35050565b620001f56200011760201b60201c565b73ffffffffffffffffffffffffffffffffffffffff166200021b620002b860201b60201c565b73ffffffffffffffffffffffffffffffffffffffff161462000274576040517f08c379a00000000000000000000000000000000000000000000000000000000081526004016200026b9062000417565b60405180910390fd5b80600c60006101000a81548173ffffffffffffffffffffffffffffffffffffffff021916908373ffffffffffffffffffffffffffffffffffffffff16021790555050565b6000600b60009054906101000a900473ffffffffffffffffffffffffffffffffffffffff16905090565b828054620002f0906200047e565b90600052602060002090601f01602090048101928262000314576000855562000360565b82601f106200032f57805160ff191683800117855562000360565b8280016001018555821562000360579182015b828111156200035f57825182559160200191906001019062000342565b5b5090506200036f919062000373565b5090565b5b808211156200038e57600081600090555060010162000374565b5090565b600081519050620003a381620004e3565b92915050565b600060208284031215620003bc57600080fd5b6000620003cc8482850162000392565b91505092915050565b6000620003e460208362000439565b91507f4f776e61626c653a2063616c6c6572206973206e6f7420746865206f776e65726000830152602082019050919050565b600060208201905081810360008301526200043281620003d5565b9050919050565b600082825260208201905092915050565b600062000457826200045e565b9050919050565b600073ffffffffffffffffffffffffffffffffffffffff82169050919050565b600060028204905060018216806200049757607f821691505b60208210811415620004ae57620004ad620004b4565b5b50919050565b7f4e487b7100000000000000000000000000000000000000000000000000000000600052602260045260246000fd5b620004ee816200044a565b8114620004fa57600080fd5b50565b61418d806200050d6000396000f3fe60806040526004361061014b5760003560e01c806358626825116100b657806395d89b411161006f57806395d89b4114610483578063a22cb465146104ae578063b88d4fde146104d7578063c87b56dd14610500578063e985e9c51461053d578063f2fde38b1461057a5761014b565b806358626825146103805780636352211e1461039c57806370a08231146103d9578063715018a6146104165780638b7afe2e1461042d5780638da5cb5b146104585761014b565b80632f745c59116101085780632f745c591461027257806334eafb11146102af5780633ccfd60b146102da578063421541ec146102f157806342842e0e1461031a5780634f6ccce7146103435761014b565b806301ffc9a71461015057806306fdde031461018d578063081812fc146101b8578063095ea7b3146101f557806318160ddd1461021e57806323b872dd14610249575b600080fd5b34801561015c57600080fd5b5061017760048036038101906101729190612e18565b6105a3565b6040516101849190613957565b60405180910390f35b34801561019957600080fd5b506101a261061d565b6040516101af9190613972565b60405180910390f35b3480156101c457600080fd5b506101df60048036038101906101da9190612eab565b6106af565b6040516101ec91906138f0565b60405180910390f35b34801561020157600080fd5b5061021c60048036038101906102179190612d75565b610734565b005b34801561022a57600080fd5b5061023361084c565b6040516102409190613bf4565b60405180910390f35b34801561025557600080fd5b50610270600480360381019061026b9190612c6f565b610859565b005b34801561027e57600080fd5b5061029960048036038101906102949190612d75565b6108b9565b6040516102a69190613bf4565b60405180910390f35b3480156102bb57600080fd5b506102c461095e565b6040516102d19190613bf4565b60405180910390f35b3480156102e657600080fd5b506102ef610964565b005b3480156102fd57600080fd5b5061031860048036038101906103139190612c0a565b610a29565b005b34801561032657600080fd5b50610341600480360381019061033c9190612c6f565b610ae9565b005b34801561034f57600080fd5b5061036a60048036038101906103659190612eab565b610b09565b6040516103779190613bf4565b60405180910390f35b61039a60048036038101906103959190612db1565b610ba0565b005b3480156103a857600080fd5b506103c360048036038101906103be9190612eab565b610d77565b6040516103d091906138f0565b60405180910390f35b3480156103e557600080fd5b5061040060048036038101906103fb9190612c0a565b610e29565b60405161040d9190613bf4565b60405180910390f35b34801561042257600080fd5b5061042b610ee1565b005b34801561043957600080fd5b50610442610f69565b60405161044f9190613bf4565b60405180910390f35b34801561046457600080fd5b5061046d610f71565b60405161047a91906138f0565b60405180910390f35b34801561048f57600080fd5b50610498610f9b565b6040516104a59190613972565b60405180910390f35b3480156104ba57600080fd5b506104d560048036038101906104d09190612d39565b61102d565b005b3480156104e357600080fd5b506104fe60048036038101906104f99190612cbe565b6111ae565b005b34801561050c57600080fd5b5061052760048036038101906105229190612eab565b611210565b6040516105349190613972565b60405180910390f35b34801561054957600080fd5b50610564600480360381019061055f9190612c33565b611431565b6040516105719190613957565b60405180910390f35b34801561058657600080fd5b506105a1600480360381019061059c9190612c0a565b6114c5565b005b60007f780e9d63000000000000000000000000000000000000000000000000000000007bffffffffffffffffffffffffffffffffffffffffffffffffffffffff1916827bffffffffffffffffffffffffffffffffffffffffffffffffffffffff191614806106165750610615826115bd565b5b9050919050565b60606000805461062c90613f42565b80601f016020809104026020016040519081016040528092919081815260200182805461065890613f42565b80156106a55780601f1061067a576101008083540402835291602001916106a5565b820191906000526020600020905b81548152906001019060200180831161068857829003601f168201915b5050505050905090565b60006106ba8261169f565b6106f9576040517f08c379a00000000000000000000000000000000000000000000000000000000081526004016106f090613b14565b60405180910390fd5b6004600083815260200190815260200160002060009054906101000a900473ffffffffffffffffffffffffffffffffffffffff169050919050565b600061073f82610d77565b90508073ffffffffffffffffffffffffffffffffffffffff168373ffffffffffffffffffffffffffffffffffffffff1614156107b0576040517f08c379a00000000000000000000000000000000000000000000000000000000081526004016107a790613b74565b60405180910390fd5b8073ffffffffffffffffffffffffffffffffffffffff166107cf61170b565b73ffffffffffffffffffffffffffffffffffffffff1614806107fe57506107fd816107f861170b565b611431565b5b61083d576040517f08c379a000000000000000000000000000000000000000000000000000000000815260040161083490613a74565b60405180910390fd5b6108478383611713565b505050565b6000600880549050905090565b61086a61086461170b565b826117cc565b6108a9576040517f08c379a00000000000000000000000000000000000000000000000000000000081526004016108a090613b94565b60405180910390fd5b6108b48383836118aa565b505050565b60006108c483610e29565b8210610905576040517f08c379a00000000000000000000000000000000000000000000000000000000081526004016108fc90613994565b60405180910390fd5b600660008473ffffffffffffffffffffffffffffffffffffffff1673ffffffffffffffffffffffffffffffffffffffff168152602001908152602001600020600083815260200190815260200160002054905092915050565b600d5481565b61096c61170b565b73ffffffffffffffffffffffffffffffffffffffff1661098a610f71565b73ffffffffffffffffffffffffffffffffffffffff16146109e0576040517f08c379a00000000000000000000000000000000000000000000000000000000081526004016109d790613b34565b60405180910390fd5b3373ffffffffffffffffffffffffffffffffffffffff166108fc479081150290604051600060405180830381858888f19350505050158015610a26573d6000803e3d6000fd5b50565b610a3161170b565b73ffffffffffffffffffffffffffffffffffffffff16610a4f610f71565b73ffffffffffffffffffffffffffffffffffffffff1614610aa5576040517f08c379a0000000000000000000000000000000000000000000000000000000008152600401610a9c90613b34565b60405180910390fd5b80600c60006101000a81548173ffffffffffffffffffffffffffffffffffffffff021916908373ffffffffffffffffffffffffffffffffffffffff16021790555050565b610b04838383604051806020016040528060008152506111ae565b505050565b6000610b1361084c565b8210610b54576040517f08c379a0000000000000000000000000000000000000000000000000000000008152600401610b4b90613bb4565b60405180910390fd5b60088281548110610b8e577f4e487b7100000000000000000000000000000000000000000000000000000000600052603260045260246000fd5b90600052602060002001549050919050565b6002600a541415610be6576040517f08c379a0000000000000000000000000000000000000000000000000000000008152600401610bdd90613bd4565b60405180910390fd5b6002600a819055506000600c60009054906101000a900473ffffffffffffffffffffffffffffffffffffffff1673ffffffffffffffffffffffffffffffffffffffff166329adafc9846040518263ffffffff1660e01b8152600401610c4b9190613bf4565b60206040518083038186803b158015610c6357600080fd5b505afa158015610c77573d6000803e3d6000fd5b505050506040513d601f19601f82011682018060405250810190610c9b9190612ed4565b905080341015610ce0576040517f08c379a0000000000000000000000000000000000000000000000000000000008152600401610cd790613af4565b60405180910390fd5b6001600d6000828254610cf39190613d77565b92505081905550604051806040016040528084815260200185815250600e6000600d54815260200190815260200160002060008201518160000155602082015181600101906008610d4592919061287f565b50905050610d5c610d5461170b565b600d54611b06565b610d693383600d54610ae9565b506001600a81905550505050565b6000806002600084815260200190815260200160002060009054906101000a900473ffffffffffffffffffffffffffffffffffffffff169050600073ffffffffffffffffffffffffffffffffffffffff168173ffffffffffffffffffffffffffffffffffffffff161415610e20576040517f08c379a0000000000000000000000000000000000000000000000000000000008152600401610e1790613ab4565b60405180910390fd5b80915050919050565b60008073ffffffffffffffffffffffffffffffffffffffff168273ffffffffffffffffffffffffffffffffffffffff161415610e9a576040517f08c379a0000000000000000000000000000000000000000000000000000000008152600401610e9190613a94565b60405180910390fd5b600360008373ffffffffffffffffffffffffffffffffffffffff1673ffffffffffffffffffffffffffffffffffffffff168152602001908152602001600020549050919050565b610ee961170b565b73ffffffffffffffffffffffffffffffffffffffff16610f07610f71565b73ffffffffffffffffffffffffffffffffffffffff1614610f5d576040517f08c379a0000000000000000000000000000000000000000000000000000000008152600401610f5490613b34565b60405180910390fd5b610f676000611b24565b565b600047905090565b6000600b60009054906101000a900473ffffffffffffffffffffffffffffffffffffffff16905090565b606060018054610faa90613f42565b80601f0160208091040260200160405190810160405280929190818152602001828054610fd690613f42565b80156110235780601f10610ff857610100808354040283529160200191611023565b820191906000526020600020905b81548152906001019060200180831161100657829003601f168201915b5050505050905090565b61103561170b565b73ffffffffffffffffffffffffffffffffffffffff168273ffffffffffffffffffffffffffffffffffffffff1614156110a3576040517f08c379a000000000000000000000000000000000000000000000000000000000815260040161109a90613a34565b60405180910390fd5b80600560006110b061170b565b73ffffffffffffffffffffffffffffffffffffffff1673ffffffffffffffffffffffffffffffffffffffff16815260200190815260200160002060008473ffffffffffffffffffffffffffffffffffffffff1673ffffffffffffffffffffffffffffffffffffffff16815260200190815260200160002060006101000a81548160ff0219169083151502179055508173ffffffffffffffffffffffffffffffffffffffff1661115d61170b565b73ffffffffffffffffffffffffffffffffffffffff167f17307eab39ab6107e8899845ad3d59bd9653f200f220920489ca2b5937696c31836040516111a29190613957565b60405180910390a35050565b6111bf6111b961170b565b836117cc565b6111fe576040517f08c379a00000000000000000000000000000000000000000000000000000000081526004016111f590613b94565b60405180910390fd5b61120a84848484611bea565b50505050565b60606000600e60008481526020019081526020016000206040518060400160405290816000820154815260200160018201600880602002604051908101604052809291906000905b828210156112fb57838201805461126e90613f42565b80601f016020809104026020016040519081016040528092919081815260200182805461129a90613f42565b80156112e75780601f106112bc576101008083540402835291602001916112e7565b820191906000526020600020905b8154815290600101906020018083116112ca57829003601f168201915b505050505081526020019060010190611258565b505050508152505090506000600c60009054906101000a900473ffffffffffffffffffffffffffffffffffffffff1673ffffffffffffffffffffffffffffffffffffffff1663d0af0cf1836000015184602001516040518363ffffffff1660e01b815260040161136c929190613c0f565b60006040518083038186803b15801561138457600080fd5b505afa158015611398573d6000803e3d6000fd5b505050506040513d6000823e3d601f19601f820116820180604052508101906113c19190612e6a565b905060006113ff6113d186611c46565b6113da84611df3565b6040516020016113eb9291906138ab565b604051602081830303815290604052611df3565b90506000816040516020016114149190613889565b604051602081830303815290604052905080945050505050919050565b6000600560008473ffffffffffffffffffffffffffffffffffffffff1673ffffffffffffffffffffffffffffffffffffffff16815260200190815260200160002060008373ffffffffffffffffffffffffffffffffffffffff1673ffffffffffffffffffffffffffffffffffffffff16815260200190815260200160002060009054906101000a900460ff16905092915050565b6114cd61170b565b73ffffffffffffffffffffffffffffffffffffffff166114eb610f71565b73ffffffffffffffffffffffffffffffffffffffff1614611541576040517f08c379a000000000000000000000000000000000000000000000000000000000815260040161153890613b34565b60405180910390fd5b600073ffffffffffffffffffffffffffffffffffffffff168173ffffffffffffffffffffffffffffffffffffffff1614156115b1576040517f08c379a00000000000000000000000000000000000000000000000000000000081526004016115a8906139d4565b60405180910390fd5b6115ba81611b24565b50565b60007f80ac58cd000000000000000000000000000000000000000000000000000000007bffffffffffffffffffffffffffffffffffffffffffffffffffffffff1916827bffffffffffffffffffffffffffffffffffffffffffffffffffffffff1916148061168857507f5b5e139f000000000000000000000000000000000000000000000000000000007bffffffffffffffffffffffffffffffffffffffffffffffffffffffff1916827bffffffffffffffffffffffffffffffffffffffffffffffffffffffff1916145b80611698575061169782611fb1565b5b9050919050565b60008073ffffffffffffffffffffffffffffffffffffffff166002600084815260200190815260200160002060009054906101000a900473ffffffffffffffffffffffffffffffffffffffff1673ffffffffffffffffffffffffffffffffffffffff1614159050919050565b600033905090565b816004600083815260200190815260200160002060006101000a81548173ffffffffffffffffffffffffffffffffffffffff021916908373ffffffffffffffffffffffffffffffffffffffff160217905550808273ffffffffffffffffffffffffffffffffffffffff1661178683610d77565b73ffffffffffffffffffffffffffffffffffffffff167f8c5be1e5ebec7d5bd14f71427d1e84f3dd0314c0f7b2291e5b200ac8c7c3b92560405160405180910390a45050565b60006117d78261169f565b611816576040517f08c379a000000000000000000000000000000000000000000000000000000000815260040161180d90613a54565b60405180910390fd5b600061182183610d77565b90508073ffffffffffffffffffffffffffffffffffffffff168473ffffffffffffffffffffffffffffffffffffffff16148061189057508373ffffffffffffffffffffffffffffffffffffffff16611878846106af565b73ffffffffffffffffffffffffffffffffffffffff16145b806118a157506118a08185611431565b5b91505092915050565b8273ffffffffffffffffffffffffffffffffffffffff166118ca82610d77565b73ffffffffffffffffffffffffffffffffffffffff1614611920576040517f08c379a000000000000000000000000000000000000000000000000000000000815260040161191790613b54565b60405180910390fd5b600073ffffffffffffffffffffffffffffffffffffffff168273ffffffffffffffffffffffffffffffffffffffff161415611990576040517f08c379a000000000000000000000000000000000000000000000000000000000815260040161198790613a14565b60405180910390fd5b61199b83838361201b565b6119a6600082611713565b6001600360008573ffffffffffffffffffffffffffffffffffffffff1673ffffffffffffffffffffffffffffffffffffffff16815260200190815260200160002060008282546119f69190613e58565b925050819055506001600360008473ffffffffffffffffffffffffffffffffffffffff1673ffffffffffffffffffffffffffffffffffffffff1681526020019081526020016000206000828254611a4d9190613d77565b92505081905550816002600083815260200190815260200160002060006101000a81548173ffffffffffffffffffffffffffffffffffffffff021916908373ffffffffffffffffffffffffffffffffffffffff160217905550808273ffffffffffffffffffffffffffffffffffffffff168473ffffffffffffffffffffffffffffffffffffffff167fddf252ad1be2c89b69c2b068fc378daa952ba7f163c4a11628f55a4df523b3ef60405160405180910390a4505050565b611b2082826040518060200160405280600081525061212f565b5050565b6000600b60009054906101000a900473ffffffffffffffffffffffffffffffffffffffff16905081600b60006101000a81548173ffffffffffffffffffffffffffffffffffffffff021916908373ffffffffffffffffffffffffffffffffffffffff1602179055508173ffffffffffffffffffffffffffffffffffffffff168173ffffffffffffffffffffffffffffffffffffffff167f8be0079c531659141344cd1fd0a4f28419497f9722a3daafe3b4186f6b6457e060405160405180910390a35050565b611bf58484846118aa565b611c018484848461218a565b611c40576040517f08c379a0000000000000000000000000000000000000000000000000000000008152600401611c37906139b4565b60405180910390fd5b50505050565b60606000821415611c8e576040518060400160405280600181526020017f30000000000000000000000000000000000000000000000000000000000000008152509050611dee565b600082905060005b60008214611cc0578080611ca990613f74565b915050600a82611cb99190613dcd565b9150611c96565b60008167ffffffffffffffff811115611d02577f4e487b7100000000000000000000000000000000000000000000000000000000600052604160045260246000fd5b6040519080825280601f01601f191660200182016040528015611d345781602001600182028036833780820191505090505b5090505b60008514611de757600182611d4d9190613e58565b9150600a85611d5c9190613fbd565b6030611d689190613d77565b60f81b818381518110611da4577f4e487b7100000000000000000000000000000000000000000000000000000000600052603260045260246000fd5b60200101907effffffffffffffffffffffffffffffffffffffffffffffffffffffffffffff1916908160001a905350600a85611de09190613dcd565b9450611d38565b8093505050505b919050565b60606000825190506000811415611e1c5760405180602001604052806000815250915050611fac565b60006003600283611e2d9190613d77565b611e379190613dcd565b6004611e439190613dfe565b90506000602082611e549190613d77565b67ffffffffffffffff811115611e93577f4e487b7100000000000000000000000000000000000000000000000000000000600052604160045260246000fd5b6040519080825280601f01601f191660200182016040528015611ec55781602001600182028036833780820191505090505b5090506000604051806060016040528060408152602001614118604091399050600181016020830160005b86811015611f695760038101905062ffffff818a015116603f8160121c168401518060081b905060ff603f83600c1c1686015116810190508060081b905060ff603f8360061c1686015116810190508060081b905060ff603f831686015116810190508060e01b90508084526004840193505050611ef0565b506003860660018114611f835760028114611f9357611f9e565b613d3d60f01b6002830352611f9e565b603d60f81b60018303525b508484525050819450505050505b919050565b60007f01ffc9a7000000000000000000000000000000000000000000000000000000007bffffffffffffffffffffffffffffffffffffffffffffffffffffffff1916827bffffffffffffffffffffffffffffffffffffffffffffffffffffffff1916149050919050565b612026838383612321565b600073ffffffffffffffffffffffffffffffffffffffff168373ffffffffffffffffffffffffffffffffffffffff1614156120695761206481612326565b6120a8565b8173ffffffffffffffffffffffffffffffffffffffff168373ffffffffffffffffffffffffffffffffffffffff16146120a7576120a6838261236f565b5b5b600073ffffffffffffffffffffffffffffffffffffffff168273ffffffffffffffffffffffffffffffffffffffff1614156120eb576120e6816124dc565b61212a565b8273ffffffffffffffffffffffffffffffffffffffff168273ffffffffffffffffffffffffffffffffffffffff161461212957612128828261261f565b5b5b505050565b612139838361269e565b612146600084848461218a565b612185576040517f08c379a000000000000000000000000000000000000000000000000000000000815260040161217c906139b4565b60405180910390fd5b505050565b60006121ab8473ffffffffffffffffffffffffffffffffffffffff1661286c565b15612314578373ffffffffffffffffffffffffffffffffffffffff1663150b7a026121d461170b565b8786866040518563ffffffff1660e01b81526004016121f6949392919061390b565b602060405180830381600087803b15801561221057600080fd5b505af192505050801561224157506040513d601f19601f8201168201806040525081019061223e9190612e41565b60015b6122c4573d8060008114612271576040519150601f19603f3d011682016040523d82523d6000602084013e612276565b606091505b506000815114156122bc576040517f08c379a00000000000000000000000000000000000000000000000000000000081526004016122b3906139b4565b60405180910390fd5b805181602001fd5b63150b7a0260e01b7bffffffffffffffffffffffffffffffffffffffffffffffffffffffff1916817bffffffffffffffffffffffffffffffffffffffffffffffffffffffff191614915050612319565b600190505b949350505050565b505050565b6008805490506009600083815260200190815260200160002081905550600881908060018154018082558091505060019003906000526020600020016000909190919091505550565b6000600161237c84610e29565b6123869190613e58565b905060006007600084815260200190815260200160002054905081811461246b576000600660008673ffffffffffffffffffffffffffffffffffffffff1673ffffffffffffffffffffffffffffffffffffffff168152602001908152602001600020600084815260200190815260200160002054905080600660008773ffffffffffffffffffffffffffffffffffffffff1673ffffffffffffffffffffffffffffffffffffffff168152602001908152602001600020600084815260200190815260200160002081905550816007600083815260200190815260200160002081905550505b6007600084815260200190815260200160002060009055600660008573ffffffffffffffffffffffffffffffffffffffff1673ffffffffffffffffffffffffffffffffffffffff16815260200190815260200160002060008381526020019081526020016000206000905550505050565b600060016008805490506124f09190613e58565b9050600060096000848152602001908152602001600020549050600060088381548110612546577f4e487b7100000000000000000000000000000000000000000000000000000000600052603260045260246000fd5b90600052602060002001549050806008838154811061258e577f4e487b7100000000000000000000000000000000000000000000000000000000600052603260045260246000fd5b906000526020600020018190555081600960008381526020019081526020016000208190555060096000858152602001908152602001600020600090556008805480612603577f4e487b7100000000000000000000000000000000000000000000000000000000600052603160045260246000fd5b6001900381819060005260206000200160009055905550505050565b600061262a83610e29565b905081600660008573ffffffffffffffffffffffffffffffffffffffff1673ffffffffffffffffffffffffffffffffffffffff168152602001908152602001600020600083815260200190815260200160002081905550806007600084815260200190815260200160002081905550505050565b600073ffffffffffffffffffffffffffffffffffffffff168273ffffffffffffffffffffffffffffffffffffffff16141561270e576040517f08c379a000000000000000000000000000000000000000000000000000000000815260040161270590613ad4565b60405180910390fd5b6127178161169f565b15612757576040517f08c379a000000000000000000000000000000000000000000000000000000000815260040161274e906139f4565b60405180910390fd5b6127636000838361201b565b6001600360008473ffffffffffffffffffffffffffffffffffffffff1673ffffffffffffffffffffffffffffffffffffffff16815260200190815260200160002060008282546127b39190613d77565b92505081905550816002600083815260200190815260200160002060006101000a81548173ffffffffffffffffffffffffffffffffffffffff021916908373ffffffffffffffffffffffffffffffffffffffff160217905550808273ffffffffffffffffffffffffffffffffffffffff16600073ffffffffffffffffffffffffffffffffffffffff167fddf252ad1be2c89b69c2b068fc378daa952ba7f163c4a11628f55a4df523b3ef60405160405180910390a45050565b600080823b905060008111915050919050565b82600881019282156128c1579160200282015b828111156128c05782518290805190602001906128b09291906128d2565b5091602001919060010190612892565b5b5090506128ce9190612958565b5090565b8280546128de90613f42565b90600052602060002090601f0160209004810192826129005760008555612947565b82601f1061291957805160ff1916838001178555612947565b82800160010185558215612947579182015b8281111561294657825182559160200191906001019061292b565b5b509050612954919061297c565b5090565b5b80821115612978576000818161296f9190612999565b50600101612959565b5090565b5b8082111561299557600081600090555060010161297d565b5090565b5080546129a590613f42565b6000825580601f106129b757506129d6565b601f0160209004906000526020600020908101906129d5919061297c565b5b50565b60006129ec6129e784613c70565b613c3f565b9050808260005b85811015612a235781358501612a098882612b8c565b8452602084019350602083019250506001810190506129f3565b5050509392505050565b6000612a40612a3b84613c96565b613c3f565b905082815260208101848484011115612a5857600080fd5b612a63848285613f00565b509392505050565b6000612a7e612a7984613cc6565b613c3f565b905082815260208101848484011115612a9657600080fd5b612aa1848285613f00565b509392505050565b6000612abc612ab784613cc6565b613c3f565b905082815260208101848484011115612ad457600080fd5b612adf848285613f0f565b509392505050565b600081359050612af6816140bb565b92915050565b600082601f830112612b0d57600080fd5b6008612b1a8482856129d9565b91505092915050565b600081359050612b32816140d2565b92915050565b600081359050612b47816140e9565b92915050565b600081519050612b5c816140e9565b92915050565b600082601f830112612b7357600080fd5b8135612b83848260208601612a2d565b91505092915050565b600082601f830112612b9d57600080fd5b8135612bad848260208601612a6b565b91505092915050565b600082601f830112612bc757600080fd5b8151612bd7848260208601612aa9565b91505092915050565b600081359050612bef81614100565b92915050565b600081519050612c0481614100565b92915050565b600060208284031215612c1c57600080fd5b6000612c2a84828501612ae7565b91505092915050565b60008060408385031215612c4657600080fd5b6000612c5485828601612ae7565b9250506020612c6585828601612ae7565b9150509250929050565b600080600060608486031215612c8457600080fd5b6000612c9286828701612ae7565b9350506020612ca386828701612ae7565b9250506040612cb486828701612be0565b9150509250925092565b60008060008060808587031215612cd457600080fd5b6000612ce287828801612ae7565b9450506020612cf387828801612ae7565b9350506040612d0487828801612be0565b925050606085013567ffffffffffffffff811115612d2157600080fd5b612d2d87828801612b62565b91505092959194509250565b60008060408385031215612d4c57600080fd5b6000612d5a85828601612ae7565b9250506020612d6b85828601612b23565b9150509250929050565b60008060408385031215612d8857600080fd5b6000612d9685828601612ae7565b9250506020612da785828601612be0565b9150509250929050565b600080600060608486031215612dc657600080fd5b600084013567ffffffffffffffff811115612de057600080fd5b612dec86828701612afc565b9350506020612dfd86828701612be0565b9250506040612e0e86828701612ae7565b9150509250925092565b600060208284031215612e2a57600080fd5b6000612e3884828501612b38565b91505092915050565b600060208284031215612e5357600080fd5b6000612e6184828501612b4d565b91505092915050565b600060208284031215612e7c57600080fd5b600082015167ffffffffffffffff811115612e9657600080fd5b612ea284828501612bb6565b91505092915050565b600060208284031215612ebd57600080fd5b6000612ecb84828501612be0565b91505092915050565b600060208284031215612ee657600080fd5b6000612ef484828501612bf5565b91505092915050565b6000612f098383612fdd565b905092915050565b612f1a81613e8c565b82525050565b6000612f2b82613d00565b612f358185613d2e565b935083602082028501612f4785613cf6565b8060005b85811015612f835784840389528151612f648582612efd565b9450612f6f83613d21565b925060208a01995050600181019050612f4b565b50829750879550505050505092915050565b612f9e81613e9e565b82525050565b6000612faf82613d0b565b612fb98185613d39565b9350612fc9818560208601613f0f565b612fd2816140aa565b840191505092915050565b6000612fe882613d16565b612ff28185613d4a565b9350613002818560208601613f0f565b61300b816140aa565b840191505092915050565b600061302182613d16565b61302b8185613d5b565b935061303b818560208601613f0f565b613044816140aa565b840191505092915050565b600061305a82613d16565b6130648185613d6c565b9350613074818560208601613f0f565b80840191505092915050565b600061308d602b83613d5b565b91507f455243373231456e756d657261626c653a206f776e657220696e646578206f7560008301527f74206f6620626f756e64730000000000000000000000000000000000000000006020830152604082019050919050565b60006130f3603283613d5b565b91507f4552433732313a207472616e7366657220746f206e6f6e20455243373231526560008301527f63656976657220696d706c656d656e74657200000000000000000000000000006020830152604082019050919050565b6000613159602683613d5b565b91507f4f776e61626c653a206e6577206f776e657220697320746865207a65726f206160008301527f64647265737300000000000000000000000000000000000000000000000000006020830152604082019050919050565b60006131bf601c83613d5b565b91507f4552433732313a20746f6b656e20616c7265616479206d696e746564000000006000830152602082019050919050565b60006131ff602483613d5b565b91507f4552433732313a207472616e7366657220746f20746865207a65726f2061646460008301527f72657373000000000000000000000000000000000000000000000000000000006020830152604082019050919050565b6000613265601983613d5b565b91507f4552433732313a20617070726f766520746f2063616c6c6572000000000000006000830152602082019050919050565b60006132a5602c83613d5b565b91507f4552433732313a206f70657261746f7220717565727920666f72206e6f6e657860008301527f697374656e7420746f6b656e00000000000000000000000000000000000000006020830152604082019050919050565b600061330b603883613d5b565b91507f4552433732313a20617070726f76652063616c6c6572206973206e6f74206f7760008301527f6e6572206e6f7220617070726f76656420666f7220616c6c00000000000000006020830152604082019050919050565b6000613371602a83613d5b565b91507f4552433732313a2062616c616e636520717565727920666f7220746865207a6560008301527f726f2061646472657373000000000000000000000000000000000000000000006020830152604082019050919050565b60006133d7602983613d5b565b91507f4552433732313a206f776e657220717565727920666f72206e6f6e657869737460008301527f656e7420746f6b656e00000000000000000000000000000000000000000000006020830152604082019050919050565b600061343d600283613d6c565b91507f227d0000000000000000000000000000000000000000000000000000000000006000830152600282019050919050565b600061347d602083613d5b565b91507f4552433732313a206d696e7420746f20746865207a65726f20616464726573736000830152602082019050919050565b60006134bd601f83613d5b565b91507f50726963653a20496e73756666696369656e7420616d6f756e742073656e74006000830152602082019050919050565b60006134fd602c83613d5b565b91507f4552433732313a20617070726f76656420717565727920666f72206e6f6e657860008301527f697374656e7420746f6b656e00000000000000000000000000000000000000006020830152604082019050919050565b6000613563602083613d5b565b91507f4f776e61626c653a2063616c6c6572206973206e6f7420746865206f776e65726000830152602082019050919050565b60006135a3602983613d5b565b91507f4552433732313a207472616e73666572206f6620746f6b656e2074686174206960008301527f73206e6f74206f776e00000000000000000000000000000000000000000000006020830152604082019050919050565b6000613609605483613d6c565b91507f222c20226465736372697074696f6e223a2022457468657265756d204d65737360008301527f6167696e672053657276696365222c2022696d616765223a2022646174613a6960208301527f6d6167652f7376672b786d6c3b6261736536342c0000000000000000000000006040830152605482019050919050565b6000613695602183613d5b565b91507f4552433732313a20617070726f76616c20746f2063757272656e74206f776e6560008301527f72000000000000000000000000000000000000000000000000000000000000006020830152604082019050919050565b60006136fb601d83613d6c565b91507f646174613a6170706c69636174696f6e2f6a736f6e3b6261736536342c0000006000830152601d82019050919050565b600061373b603183613d5b565b91507f4552433732313a207472616e736665722063616c6c6572206973206e6f74206f60008301527f776e6572206e6f7220617070726f7665640000000000000000000000000000006020830152604082019050919050565b60006137a1602c83613d5b565b91507f455243373231456e756d657261626c653a20676c6f62616c20696e646578206f60008301527f7574206f6620626f756e647300000000000000000000000000000000000000006020830152604082019050919050565b6000613807601183613d6c565b91507f7b226e616d65223a20224574686d7320230000000000000000000000000000006000830152601182019050919050565b6000613847601f83613d5b565b91507f5265656e7472616e637947756172643a207265656e7472616e742063616c6c006000830152602082019050919050565b61388381613ef6565b82525050565b6000613894826136ee565b91506138a0828461304f565b915081905092915050565b60006138b6826137fa565b91506138c2828561304f565b91506138cd826135fc565b91506138d9828461304f565b91506138e482613430565b91508190509392505050565b60006020820190506139056000830184612f11565b92915050565b60006080820190506139206000830187612f11565b61392d6020830186612f11565b61393a604083018561387a565b818103606083015261394c8184612fa4565b905095945050505050565b600060208201905061396c6000830184612f95565b92915050565b6000602082019050818103600083015261398c8184613016565b905092915050565b600060208201905081810360008301526139ad81613080565b9050919050565b600060208201905081810360008301526139cd816130e6565b9050919050565b600060208201905081810360008301526139ed8161314c565b9050919050565b60006020820190508181036000830152613a0d816131b2565b9050919050565b60006020820190508181036000830152613a2d816131f2565b9050919050565b60006020820190508181036000830152613a4d81613258565b9050919050565b60006020820190508181036000830152613a6d81613298565b9050919050565b60006020820190508181036000830152613a8d816132fe565b9050919050565b60006020820190508181036000830152613aad81613364565b9050919050565b60006020820190508181036000830152613acd816133ca565b9050919050565b60006020820190508181036000830152613aed81613470565b9050919050565b60006020820190508181036000830152613b0d816134b0565b9050919050565b60006020820190508181036000830152613b2d816134f0565b9050919050565b60006020820190508181036000830152613b4d81613556565b9050919050565b60006020820190508181036000830152613b6d81613596565b9050919050565b60006020820190508181036000830152613b8d81613688565b9050919050565b60006020820190508181036000830152613bad8161372e565b9050919050565b60006020820190508181036000830152613bcd81613794565b9050919050565b60006020820190508181036000830152613bed8161383a565b9050919050565b6000602082019050613c09600083018461387a565b92915050565b6000604082019050613c24600083018561387a565b8181036020830152613c368184612f20565b90509392505050565b6000604051905081810181811067ffffffffffffffff82111715613c6657613c6561407b565b5b8060405250919050565b600067ffffffffffffffff821115613c8b57613c8a61407b565b5b602082029050919050565b600067ffffffffffffffff821115613cb157613cb061407b565b5b601f19601f8301169050602081019050919050565b600067ffffffffffffffff821115613ce157613ce061407b565b5b601f19601f8301169050602081019050919050565b6000819050919050565b600060089050919050565b600081519050919050565b600081519050919050565b6000602082019050919050565b600081905092915050565b600082825260208201905092915050565b600082825260208201905092915050565b600082825260208201905092915050565b600081905092915050565b6000613d8282613ef6565b9150613d8d83613ef6565b9250827fffffffffffffffffffffffffffffffffffffffffffffffffffffffffffffffff03821115613dc257613dc1613fee565b5b828201905092915050565b6000613dd882613ef6565b9150613de383613ef6565b925082613df357613df261401d565b5b828204905092915050565b6000613e0982613ef6565b9150613e1483613ef6565b9250817fffffffffffffffffffffffffffffffffffffffffffffffffffffffffffffffff0483118215151615613e4d57613e4c613fee565b5b828202905092915050565b6000613e6382613ef6565b9150613e6e83613ef6565b925082821015613e8157613e80613fee565b5b828203905092915050565b6000613e9782613ed6565b9050919050565b60008115159050919050565b60007fffffffff0000000000000000000000000000000000000000000000000000000082169050919050565b600073ffffffffffffffffffffffffffffffffffffffff82169050919050565b6000819050919050565b82818337600083830152505050565b60005b83811015613f2d578082015181840152602081019050613f12565b83811115613f3c576000848401525b50505050565b60006002820490506001821680613f5a57607f821691505b60208210811415613f6e57613f6d61404c565b5b50919050565b6000613f7f82613ef6565b91507fffffffffffffffffffffffffffffffffffffffffffffffffffffffffffffffff821415613fb257613fb1613fee565b5b600182019050919050565b6000613fc882613ef6565b9150613fd383613ef6565b925082613fe357613fe261401d565b5b828206905092915050565b7f4e487b7100000000000000000000000000000000000000000000000000000000600052601160045260246000fd5b7f4e487b7100000000000000000000000000000000000000000000000000000000600052601260045260246000fd5b7f4e487b7100000000000000000000000000000000000000000000000000000000600052602260045260246000fd5b7f4e487b7100000000000000000000000000000000000000000000000000000000600052604160045260246000fd5b6000601f19601f8301169050919050565b6140c481613e8c565b81146140cf57600080fd5b50565b6140db81613e9e565b81146140e657600080fd5b50565b6140f281613eaa565b81146140fd57600080fd5b50565b61410981613ef6565b811461411457600080fd5b5056fe4142434445464748494a4b4c4d4e4f505152535455565758595a6162636465666768696a6b6c6d6e6f707172737475767778797a303132333435363738392b2fa26469706673582212209b2151f9d555d6f2e819ba74b2e6e946cb5fd9c7c618c795a10aafba979aceb664736f6c63430008000033",
  "linkReferences": {},
  "deployedLinkReferences": {}
}