{
  "_format": "hh-sol-artifact-1",
  "contractName": "EthmsTemplates",
  "sourceName": "contracts/EthmsTemplates.sol",
  "abi": [
    {
      "anonymous": false,
      "inputs": [
        {
          "indexed": true,
          "internalType": "address",
          "name": "previousOwner",
          "type": "address"
        },
        {
          "indexed": true,
          "internalType": "address",
          "name": "newOwner",
          "type": "address"
        }
      ],
      "name": "OwnershipTransferred",
      "type": "event"
    },
    {
      "inputs": [
        {
          "internalType": "uint256",
          "name": "",
          "type": "uint256"
        },
        {
          "internalType": "uint256",
          "name": "",
          "type": "uint256"
        }
      ],
      "name": "_templates",
      "outputs": [
        {
          "internalType": "string",
          "name": "",
          "type": "string"
        }
      ],
      "stateMutability": "view",
      "type": "function"
    },
    {
      "inputs": [
        {
          "internalType": "string[9]",
          "name": "templateContent",
          "type": "string[9]"
        },
        {
          "internalType": "uint256",
          "name": "price",
          "type": "uint256"
        }
      ],
      "name": "addNewTemplate",
      "outputs": [
        {
          "internalType": "uint256",
          "name": "",
          "type": "uint256"
        }
      ],
      "stateMutability": "nonpayable",
      "type": "function"
    },
    {
      "inputs": [
        {
          "internalType": "uint256",
          "name": "templateId",
          "type": "uint256"
        },
        {
          "internalType": "string[8]",
          "name": "_textMessage",
          "type": "string[8]"
        }
      ],
      "name": "constructSVG",
      "outputs": [
        {
          "internalType": "string",
          "name": "",
          "type": "string"
        }
      ],
      "stateMutability": "view",
      "type": "function"
    },
    {
      "inputs": [
        {
          "internalType": "uint256",
          "name": "templateId",
          "type": "uint256"
        }
      ],
      "name": "getTemplate",
      "outputs": [
        {
          "internalType": "string",
          "name": "",
          "type": "string"
        }
      ],
      "stateMutability": "view",
      "type": "function"
    },
    {
      "inputs": [
        {
          "internalType": "uint256",
          "name": "templateId",
          "type": "uint256"
        }
      ],
      "name": "getTemplatePrice",
      "outputs": [
        {
          "internalType": "uint256",
          "name": "",
          "type": "uint256"
        }
      ],
      "stateMutability": "view",
      "type": "function"
    },
    {
      "inputs": [],
      "name": "owner",
      "outputs": [
        {
          "internalType": "address",
          "name": "",
          "type": "address"
        }
      ],
      "stateMutability": "view",
      "type": "function"
    },
    {
      "inputs": [],
      "name": "renounceOwnership",
      "outputs": [],
      "stateMutability": "nonpayable",
      "type": "function"
    },
    {
      "inputs": [],
      "name": "templateIndex",
      "outputs": [
        {
          "internalType": "uint256",
          "name": "",
          "type": "uint256"
        }
      ],
      "stateMutability": "view",
      "type": "function"
    },
    {
      "inputs": [
        {
          "internalType": "uint256",
          "name": "",
          "type": "uint256"
        }
      ],
      "name": "templatePrices",
      "outputs": [
        {
          "internalType": "uint256",
          "name": "",
          "type": "uint256"
        }
      ],
      "stateMutability": "view",
      "type": "function"
    },
    {
      "inputs": [
        {
          "internalType": "address",
          "name": "newOwner",
          "type": "address"
        }
      ],
      "name": "transferOwnership",
      "outputs": [],
      "stateMutability": "nonpayable",
      "type": "function"
    }
  ],
  "bytecode": "0x608060405234801561001057600080fd5b5061002d61002261003260201b60201c565b61003a60201b60201c565b6100fe565b600033905090565b60008060009054906101000a900473ffffffffffffffffffffffffffffffffffffffff169050816000806101000a81548173ffffffffffffffffffffffffffffffffffffffff021916908373ffffffffffffffffffffffffffffffffffffffff1602179055508173ffffffffffffffffffffffffffffffffffffffff168173ffffffffffffffffffffffffffffffffffffffff167f8be0079c531659141344cd1fd0a4f28419497f9722a3daafe3b4186f6b6457e060405160405180910390a35050565b6119468061010d6000396000f3fe608060405234801561001057600080fd5b506004361061009e5760003560e01c80638da5cb5b116100665780638da5cb5b1461015b578063d0af0cf114610179578063db05d985146101a9578063de77bf8d146101d9578063f2fde38b146102095761009e565b806329adafc9146100a357806331543cf4146100d35780635f7ae80d1461010357806368fe1e9a14610133578063715018a614610151575b600080fd5b6100bd60048036038101906100b8919061126e565b610225565b6040516100ca919061164f565b60405180910390f35b6100ed60048036038101906100e8919061126e565b610242565b6040516100fa91906115ed565b60405180910390f35b61011d6004803603810190610118919061126e565b610585565b60405161012a919061164f565b60405180910390f35b61013b61059d565b604051610148919061164f565b60405180910390f35b6101596105a3565b005b61016361062b565b60405161017091906115d2565b60405180910390f35b610193600480360381019061018e9190611297565b610654565b6040516101a091906115ed565b60405180910390f35b6101c360048036038101906101be91906112eb565b610bba565b6040516101d091906115ed565b60405180910390f35b6101f360048036038101906101ee919061121a565b610c6a565b604051610200919061164f565b60405180910390f35b610223600480360381019061021e91906111f1565b610d4b565b005b600060036000838152602001908152602001600020549050919050565b6060600060026000848152602001908152602001600020600980602002604051908101604052809291906000905b8282101561031357838201805461028690611812565b80601f01602080910402602001604051908101604052809291908181526020018280546102b290611812565b80156102ff5780601f106102d4576101008083540402835291602001916102ff565b820191906000526020600020905b8154815290600101906020018083116102e257829003601f168201915b505050505081526020019060010190610270565b505050509050600081600060098110610355577f4e487b7100000000000000000000000000000000000000000000000000000000600052603260045260246000fd5b602002015182600160098110610394577f4e487b7100000000000000000000000000000000000000000000000000000000600052603260045260246000fd5b6020020151836002600981106103d3577f4e487b7100000000000000000000000000000000000000000000000000000000600052603260045260246000fd5b602002015184600360098110610412577f4e487b7100000000000000000000000000000000000000000000000000000000600052603260045260246000fd5b602002015185600460098110610451577f4e487b7100000000000000000000000000000000000000000000000000000000600052603260045260246000fd5b602002015186600560098110610490577f4e487b7100000000000000000000000000000000000000000000000000000000600052603260045260246000fd5b6020020151876006600981106104cf577f4e487b7100000000000000000000000000000000000000000000000000000000600052603260045260246000fd5b60200201518860076009811061050e577f4e487b7100000000000000000000000000000000000000000000000000000000600052603260045260246000fd5b60200201518960086009811061054d577f4e487b7100000000000000000000000000000000000000000000000000000000600052603260045260246000fd5b602002015160405160200161056a999897969594939291906114c7565b60405160208183030381529060405290508092505050919050565b60036020528060005260406000206000915090505481565b60015481565b6105ab610e43565b73ffffffffffffffffffffffffffffffffffffffff166105c961062b565b73ffffffffffffffffffffffffffffffffffffffff161461061f576040517f08c379a00000000000000000000000000000000000000000000000000000000081526004016106169061162f565b60405180910390fd5b6106296000610e4b565b565b60008060009054906101000a900473ffffffffffffffffffffffffffffffffffffffff16905090565b6060600060026000858152602001908152602001600020600980602002604051908101604052809291906000905b8282101561072557838201805461069890611812565b80601f01602080910402602001604051908101604052809291908181526020018280546106c490611812565b80156107115780601f106106e657610100808354040283529160200191610711565b820191906000526020600020905b8154815290600101906020018083116106f457829003601f168201915b505050505081526020019060010190610682565b505050509050600081600060098110610767577f4e487b7100000000000000000000000000000000000000000000000000000000600052603260045260246000fd5b6020020151846000600881106107a6577f4e487b7100000000000000000000000000000000000000000000000000000000600052603260045260246000fd5b6020020151836001600981106107e5577f4e487b7100000000000000000000000000000000000000000000000000000000600052603260045260246000fd5b602002015186600160088110610824577f4e487b7100000000000000000000000000000000000000000000000000000000600052603260045260246000fd5b602002015185600260098110610863577f4e487b7100000000000000000000000000000000000000000000000000000000600052603260045260246000fd5b6020020151886002600881106108a2577f4e487b7100000000000000000000000000000000000000000000000000000000600052603260045260246000fd5b6020020151876003600981106108e1577f4e487b7100000000000000000000000000000000000000000000000000000000600052603260045260246000fd5b60200201518a600360088110610920577f4e487b7100000000000000000000000000000000000000000000000000000000600052603260045260246000fd5b602002015160405160200161093c989796959493929190611455565b60405160208183030381529060405290508082600460098110610988577f4e487b7100000000000000000000000000000000000000000000000000000000600052603260045260246000fd5b6020020151856004600881106109c7577f4e487b7100000000000000000000000000000000000000000000000000000000600052603260045260246000fd5b602002015184600560098110610a06577f4e487b7100000000000000000000000000000000000000000000000000000000600052603260045260246000fd5b602002015187600560088110610a45577f4e487b7100000000000000000000000000000000000000000000000000000000600052603260045260246000fd5b602002015186600660098110610a84577f4e487b7100000000000000000000000000000000000000000000000000000000600052603260045260246000fd5b602002015189600660088110610ac3577f4e487b7100000000000000000000000000000000000000000000000000000000600052603260045260246000fd5b602002015188600760098110610b02577f4e487b7100000000000000000000000000000000000000000000000000000000600052603260045260246000fd5b60200201518b600760088110610b41577f4e487b7100000000000000000000000000000000000000000000000000000000600052603260045260246000fd5b60200201518a600860098110610b80577f4e487b7100000000000000000000000000000000000000000000000000000000600052603260045260246000fd5b6020020151604051602001610b9e9a99989796959493929190611546565b6040516020818303038152906040529050809250505092915050565b60026020528160005260406000208160098110610bd657600080fd5b01600091509150508054610be990611812565b80601f0160208091040260200160405190810160405280929190818152602001828054610c1590611812565b8015610c625780601f10610c3757610100808354040283529160200191610c62565b820191906000526020600020905b815481529060010190602001808311610c4557829003601f168201915b505050505081565b6000610c74610e43565b73ffffffffffffffffffffffffffffffffffffffff16610c9261062b565b73ffffffffffffffffffffffffffffffffffffffff1614610ce8576040517f08c379a0000000000000000000000000000000000000000000000000000000008152600401610cdf9061162f565b60405180910390fd5b82600260006001548152602001908152602001600020906009610d0c929190610f0f565b5081600360006001548152602001908152602001600020819055506001806000828254610d39919061173e565b92505081905550600154905092915050565b610d53610e43565b73ffffffffffffffffffffffffffffffffffffffff16610d7161062b565b73ffffffffffffffffffffffffffffffffffffffff1614610dc7576040517f08c379a0000000000000000000000000000000000000000000000000000000008152600401610dbe9061162f565b60405180910390fd5b600073ffffffffffffffffffffffffffffffffffffffff168173ffffffffffffffffffffffffffffffffffffffff161415610e37576040517f08c379a0000000000000000000000000000000000000000000000000000000008152600401610e2e9061160f565b60405180910390fd5b610e4081610e4b565b50565b600033905090565b60008060009054906101000a900473ffffffffffffffffffffffffffffffffffffffff169050816000806101000a81548173ffffffffffffffffffffffffffffffffffffffff021916908373ffffffffffffffffffffffffffffffffffffffff1602179055508173ffffffffffffffffffffffffffffffffffffffff168173ffffffffffffffffffffffffffffffffffffffff167f8be0079c531659141344cd1fd0a4f28419497f9722a3daafe3b4186f6b6457e060405160405180910390a35050565b8260098101928215610f51579160200282015b82811115610f50578251829080519060200190610f40929190610f62565b5091602001919060010190610f22565b5b509050610f5e9190610fe8565b5090565b828054610f6e90611812565b90600052602060002090601f016020900481019282610f905760008555610fd7565b82601f10610fa957805160ff1916838001178555610fd7565b82800160010185558215610fd7579182015b82811115610fd6578251825591602001919060010190610fbb565b5b509050610fe4919061100c565b5090565b5b808211156110085760008181610fff9190611029565b50600101610fe9565b5090565b5b8082111561102557600081600090555060010161100d565b5090565b50805461103590611812565b6000825580601f106110475750611066565b601f016020900490600052602060002090810190611065919061100c565b5b50565b600061107c6110778461169b565b61166a565b9050808260005b858110156110b3578135850161109988826111b2565b845260208401935060208301925050600181019050611083565b5050509392505050565b60006110d06110cb846116c1565b61166a565b9050808260005b8581101561110757813585016110ed88826111b2565b8452602084019350602083019250506001810190506110d7565b5050509392505050565b600061112461111f846116e7565b61166a565b90508281526020810184848401111561113c57600080fd5b6111478482856117d0565b509392505050565b60008135905061115e816118e2565b92915050565b600082601f83011261117557600080fd5b6008611182848285611069565b91505092915050565b600082601f83011261119c57600080fd5b60096111a98482856110bd565b91505092915050565b600082601f8301126111c357600080fd5b81356111d3848260208601611111565b91505092915050565b6000813590506111eb816118f9565b92915050565b60006020828403121561120357600080fd5b60006112118482850161114f565b91505092915050565b6000806040838503121561122d57600080fd5b600083013567ffffffffffffffff81111561124757600080fd5b6112538582860161118b565b9250506020611264858286016111dc565b9150509250929050565b60006020828403121561128057600080fd5b600061128e848285016111dc565b91505092915050565b600080604083850312156112aa57600080fd5b60006112b8858286016111dc565b925050602083013567ffffffffffffffff8111156112d557600080fd5b6112e185828601611164565b9150509250929050565b600080604083850312156112fe57600080fd5b600061130c858286016111dc565b925050602061131d858286016111dc565b9150509250929050565b61133081611794565b82525050565b600061134182611717565b61134b8185611722565b935061135b8185602086016117df565b611364816118d1565b840191505092915050565b600061137a82611717565b6113848185611733565b93506113948185602086016117df565b80840191505092915050565b60006113ad602683611722565b91507f4f776e61626c653a206e6577206f776e657220697320746865207a65726f206160008301527f64647265737300000000000000000000000000000000000000000000000000006020830152604082019050919050565b6000611413602083611722565b91507f4f776e61626c653a2063616c6c6572206973206e6f7420746865206f776e65726000830152602082019050919050565b61144f816117c6565b82525050565b6000611461828b61136f565b915061146d828a61136f565b9150611479828961136f565b9150611485828861136f565b9150611491828761136f565b915061149d828661136f565b91506114a9828561136f565b91506114b5828461136f565b91508190509998505050505050505050565b60006114d3828c61136f565b91506114df828b61136f565b91506114eb828a61136f565b91506114f7828961136f565b9150611503828861136f565b915061150f828761136f565b915061151b828661136f565b9150611527828561136f565b9150611533828461136f565b91508190509a9950505050505050505050565b6000611552828d61136f565b915061155e828c61136f565b915061156a828b61136f565b9150611576828a61136f565b9150611582828961136f565b915061158e828861136f565b915061159a828761136f565b91506115a6828661136f565b91506115b2828561136f565b91506115be828461136f565b91508190509b9a5050505050505050505050565b60006020820190506115e76000830184611327565b92915050565b600060208201905081810360008301526116078184611336565b905092915050565b60006020820190508181036000830152611628816113a0565b9050919050565b6000602082019050818103600083015261164881611406565b9050919050565b60006020820190506116646000830184611446565b92915050565b6000604051905081810181811067ffffffffffffffff82111715611691576116906118a2565b5b8060405250919050565b600067ffffffffffffffff8211156116b6576116b56118a2565b5b602082029050919050565b600067ffffffffffffffff8211156116dc576116db6118a2565b5b602082029050919050565b600067ffffffffffffffff821115611702576117016118a2565b5b601f19601f8301169050602081019050919050565b600081519050919050565b600082825260208201905092915050565b600081905092915050565b6000611749826117c6565b9150611754836117c6565b9250827fffffffffffffffffffffffffffffffffffffffffffffffffffffffffffffffff0382111561178957611788611844565b5b828201905092915050565b600061179f826117a6565b9050919050565b600073ffffffffffffffffffffffffffffffffffffffff82169050919050565b6000819050919050565b82818337600083830152505050565b60005b838110156117fd5780820151818401526020810190506117e2565b8381111561180c576000848401525b50505050565b6000600282049050600182168061182a57607f821691505b6020821081141561183e5761183d611873565b5b50919050565b7f4e487b7100000000000000000000000000000000000000000000000000000000600052601160045260246000fd5b7f4e487b7100000000000000000000000000000000000000000000000000000000600052602260045260246000fd5b7f4e487b7100000000000000000000000000000000000000000000000000000000600052604160045260246000fd5b6000601f19601f8301169050919050565b6118eb81611794565b81146118f657600080fd5b50565b611902816117c6565b811461190d57600080fd5b5056fea2646970667358221220f31b5c736e9ef9a366ae50ebbb99df4ffb77f70919101d4f729e2b936e6220bf64736f6c63430008000033",
  "linkReferences": {},
  "deployedLinkReferences": {}
}