{
  "_format": "hh-sol-artifact-1",
  "contractName": "HashesTest",
  "sourceName": "contracts/HashesTest.sol",
  "abi": [
    {
      "inputs": [
        {
          "internalType": "uint256",
          "name": "nonce",
          "type": "uint256"
        },
        {
          "internalType": "address",
          "name": "minter",
          "type": "address"
        },
        {
          "internalType": "string",
          "name": "_phrase",
          "type": "string"
        }
      ],
      "name": "supportsInterface",
      "outputs": [
        {
          "internalType": "bytes32",
          "name": "",
          "type": "bytes32"
        }
      ],
      "stateMutability": "view",
      "type": "function"
    }
  ],
  "bytecode": "0x608060405234801561001057600080fd5b5061041e806100206000396000f3fe608060405234801561001057600080fd5b506004361061002b5760003560e01c8063ea4e705b14610030575b600080fd5b61004a60048036038101906100459190610128565b610060565b6040516100579190610236565b60405180910390f35b6000838383604051602001610077939291906101fd565b6040516020818303038152906040528051906020012090509392505050565b60006100a96100a484610282565b610251565b9050828152602081018484840111156100c157600080fd5b6100cc84828561030e565b509392505050565b6000813590506100e3816103ba565b92915050565b600082601f8301126100fa57600080fd5b813561010a848260208601610096565b91505092915050565b600081359050610122816103d1565b92915050565b60008060006060848603121561013d57600080fd5b600061014b86828701610113565b935050602061015c868287016100d4565b925050604084013567ffffffffffffffff81111561017957600080fd5b610185868287016100e9565b9150509250925092565b6101a061019b826102c8565b610350565b82525050565b6101af816102da565b82525050565b60006101c0826102b2565b6101ca81856102bd565b93506101da81856020860161031d565b80840191505092915050565b6101f76101f282610304565b610374565b82525050565b600061020982866101e6565b602082019150610219828561018f565b60148201915061022982846101b5565b9150819050949350505050565b600060208201905061024b60008301846101a6565b92915050565b6000604051905081810181811067ffffffffffffffff821117156102785761027761037e565b5b8060405250919050565b600067ffffffffffffffff82111561029d5761029c61037e565b5b601f19601f8301169050602081019050919050565b600081519050919050565b600081905092915050565b60006102d3826102e4565b9050919050565b6000819050919050565b600073ffffffffffffffffffffffffffffffffffffffff82169050919050565b6000819050919050565b82818337600083830152505050565b60005b8381101561033b578082015181840152602081019050610320565b8381111561034a576000848401525b50505050565b600061035b82610362565b9050919050565b600061036d826103ad565b9050919050565b6000819050919050565b7f4e487b7100000000000000000000000000000000000000000000000000000000600052604160045260246000fd5b60008160601b9050919050565b6103c3816102c8565b81146103ce57600080fd5b50565b6103da81610304565b81146103e557600080fd5b5056fea26469706673582212201c48c854795c517c4ce319131fa4051097d7e9010d476de95478923ba2eb396564736f6c63430008000033",
  "linkReferences": {},
  "deployedLinkReferences": {}
}